:020000040800F2
:10000000081B012061020008074600087936000835
:1000100005460008C10A0008E35B00080000000074
:10002000000000000000000000000000A101000826
:100030008D0B000800000000FD010008754E00084F
:100040007B0200087B0200087B0200087B0200089C
:100050007B0200087B0200087B0200087B0200088C
:100060008F0B00087B0200087B0200087B0200085F
:100070007B0200087B0200087B0200087B0200086C
:10008000C50A00087B0200087B0200087B0200080A
:100090007B0200087B0200087B0200087B0200084C
:1000A0007B0200083D4F00087B0200087B0200082D
:1000B000494F00087B0200087B0200087B02000811
:1000C0007B0200087B0200087B0200087B0200081C
:1000D0007B020008FD5A0008095B0008255B000848
:1000E0007B0200087B0200087B0200087B020008FC
:1000F000554F00087B0200087B0200087B020008C5
:100100007B0200087B0200087B0200087B020008DB
:100110007B0200087B0200087B0200087B020008CB
:100120007B020008D10A00087B020008DD0A0008F3
:100130007B0200087B0200087B0200087B020008AB
:100140007B0200087B0200087B0200087B0200089B
:100150007B0200087B0200087B020008315B00087C
:100160007B0200087B0200087B0200087B0200087B
:100170007B0200087B0200087B02000800000000F0
:100180007B0200087B020008DFF810D000F09CFB27
:1001900000480047616C0008AFF30080081B012095
:1001A0002C4B19680868B0E8F04F80F30988BFF35A
:1001B0006F8F4FF0000080F311887047000000003F
:1001C00008480068006880F308884FF0000080F35A
:1001D000148862B661B6BFF34F8FBFF36F8F00DF35
:1001E00000BF00BF08ED00E0DFF80C00016841F43B
:1001F00070010160704700BF88ED00E0EFF30980F7
:10020000BFF36F8F134B1A681EF0100F08BF20ED5D
:10021000108A20E9F04F106009B44FF0500080F3CD
:100220001188BFF34F8FBFF36F8F08F03FF84FF087
:10023000000080F3118809BC19680868B0E8F04F25
:100240001EF0100F08BFB0EC108A80F30988BFF3CE
:100250006F8F704784000020EFF305807047000027
:100260000648804706480047FEE7FEE7FEE7FEE750
:10027000FEE7FEE7FEE7FEE7FEE7FEE72D4F00089C
:10028000890100082DE9F05F0546002092469B4653
:1002900088460646814640241BE02846414647469C
:1002A000224600F079F953465A46C01A914110D3BC
:1002B00011461846224600F060F92D1A67EB010836
:1002C0004F4622460120002100F057F917EB0009A4
:1002D0004E41201EA4F10104DFDC484631462A4687
:1002E0004346BDE8F09F40EA01039B0703D009E0C5
:1002F00008C9121F08C0042AFAD203E011F8013B12
:1003000000F8013B521EF9D27047D2B201E000F86A
:10031000012B491EFBD270470022F6E710B51346A9
:100320000A4604461946FFF7F0FF204610BD2DE9A6
:10033000FE4F81EA030404F0004421F000410094E0
:100340004FF0000B23F0004350EA01045ED052EA64
:1003500003045BD0C3F30A54C1F30A552C44A4F23E
:10036000F3340194A0FB0254C1F3130141F4801152
:10037000C3F3130343F4801301FB024400FB034E59
:10038000840A970A44EA815447EA8357A4FB076822
:1003900002958D0A05FB07854FEA932C04FB0C544C
:1003A0002705029D4FEA065847EA1637B5EB0805C0
:1003B0006EEB070C870E920E47EA811742EA831212
:1003C000A7FB0201B6EB0B0164EB00042B0D43EA23
:1003D0000C335E1844EB1C50DA465146E7FB020131
:1003E000C5F313044FEA0B3343EA14534FEA0432C4
:1003F000019C43EA0603A4F10C040294009CCDE99D
:1004000000B400F01FF903B0BDE8F08F00200146F2
:10041000F9E72DE9F04D81EA030404F0004B21F0E7
:10042000004514464FF0000A23F0004150EA05024F
:1004300020D054EA01021DD0C5F30A570246C5F385
:100440001303C1F31300C1F30A5640F4801543F4BB
:100450008013A7EB0608101BD64608F2FD3873EB95
:10046000050002D308F1010801E092185B41B8F1E0
:10047000000F03DA00200146BDE8F08D00204FF4A4
:100480008011064684460EE0171B73EB050705D363
:10049000121B63EB050306434CEA010C49084FEAC3
:1004A000300092185B4150EA0107EDD152EA030097
:1004B00012D082EA040083EA0501084305D0101B2C
:1004C000AB4106D20122002306E000224FF0004398
:1004D00002E06FF0010253101AEB06004CEB0851DA
:1004E00010EB0A0041EB0B01BDE8F04D00F09BB8AA
:1004F00000F0004230F000400AD0C10D01F56071FB
:10050000C0F3160042EA0151C20840071143704788
:1005100000200146704701F0004330B421F0004153
:1005200050EA010206D00A0DA2F56072C1F3130170
:10053000002A02DC30BC00207047440F44EAC104AA
:10054000C100E01830BC00EBC25000F035B830B547
:100550000B46014600202022012409E021FA02F581
:100560009D4205D303FA02F5491B04FA02F528441B
:10057000151EA2F10102F1DC30BD202A04DB203A75
:1005800000FA02F1002070479140C2F1200320FAE6
:1005900003F3194390407047202A04DB203A21FAE4
:1005A00002F00021704721FA02F3D040C2F120028C
:1005B00091400843194670470029A8BF7047401C66
:1005C000490008BF20F00100704710B4B0FA80FC69
:1005D00000FA0CF050EA010404BF10BC704749B1A6
:1005E000CCF1200421FA04F411FA0CF118BF012116
:1005F00021430843A3EB0C01CB1D4FEA00614FEAF6
:10060000102042BF002010BC704700EBC3501044C4
:100610000029A4BF10BC7047401C490008BF20F04F
:10062000010010BC704710B5141E73F1000408DA05
:10063000401C41F1000192185B411A4301D120F0A6
:10064000010010BD2DE9F04D92469B4611B1B1FA63
:1006500081F202E0B0FA80F220329046FFF78DFF7F
:1006600004460F4640EA0A0041EA0B0153465A4647
:10067000084313D0114653EA010019D0C8F14002D3
:100680005046FFF789FF05460E46504659464246FA
:10069000FFF773FF084305D0012004E020463946E8
:1006A000BDE8F08D0020054346EAE0762C43374351
:1006B0000A986305E40AA0EB08000022FD0A44EA58
:1006C00047540A3002D500200146E9E70105101918
:1006D0006941DDE9084500196941BDE8F04DA2E72F
:1006E0002DE9FE4F804681EA0300C00F0C460090C2
:1006F00021F0004123F00045B8EB0200A94105D2EA
:100700004046214690461C460B46024623F00040D8
:10071000104347D0270DC7F30A00C3F30A510290D4
:10072000401A019040286BDAC3F3130040F4801B99
:100730000098924620B10023D2EB030A63EB0B0B27
:1007400001985946C0F140025046FFF716FF064691
:100750000D4650465946019A00F0C8F810EB0800C3
:100760006141002487EA115284EAE7731A4340D0BA
:10077000009A62B3019A012A4FEA075215DC001B66
:1007800061EB02014FF0004202EA0752CDE900425C
:10079000001C41F5801132462B46FFF753FF03B092
:1007A000BDE8F08F40462146F9E7001B61EB0201EE
:1007B000001C41F5801300185B412018A2F50017BA
:1007C00047EB030140EAD570B6196D4111E06D08A1
:1007D0004FEA360645EAC0754FEA0752001B61EB47
:1007E0000201001C41F5801149084FEA3000001950
:1007F000514132462B4603B0BDE8F04FFFF713BF1F
:100800000098012240000023D0EB020263EBE0736A
:10081000009821464FEAE074B8EB000061EB040158
:10082000E9E783F000435BE781F0004158E7C1F35B
:100830000A52C1F3130140F2FF3341F480119A428E
:1008400002DA00200146704740F233439A42A2F296
:10085000334202DC5242FFF79FBEFFF78EBE00001C
:1008600030B5041E71F1000404DB4FF00044404237
:1008700064EB0101141E73F1000405DB1C464FF00C
:100880000043524263EB0403994208BF904230BDDB
:10089000002801DBC0F10040002901DBC1F100416B
:1008A000814202D24FF0004004E04FF0005001D1ED
:1008B0004FF0C0404FEA2062EFF3008162F31F6106
:1008C00081F3008870470000064C074D06E0E068A1
:1008D00040F0010394E8070098471034AC42F6D387
:1008E000FFF756FC009F0008209F0008202A06DB27
:1008F000CB17203A41FA02F043EAE07306E041FAEE
:1009000002F3D040C2F120029140084319467047DB
:10091000464910B54A6822F440324A604A68436842
:100920001A434A6001684A6822F480724A6001688A
:100930004A68036942EA03224A6001684A6822F071
:1009400040724A6001684A6883681A434A600168D5
:100950008A6822F400628A6001688A68C3681A4360
:100960008A60816A6FF07062D14201688A6822F001
:1009700070628A6001688A680CD0836A1A438A6050
:1009800001688A6822F040528A6001688A68C36AF6
:100990001A4301E022F040528A6001688A6822F01E
:1009A00002028A6001688A68037E42EA43028A6022
:1009B00090F82010002901684A680FD042F40062C4
:1009C0004A6001684A6822F460424A6001684A68E5
:1009D000174C436A04EB43331A4301E022F40062EC
:1009E0004A600168CA6A22F47002CA620168CA6A6F
:1009F000838B104C04EB03531A43CA6201688A6864
:100A000022F400728A6001688A6890F8303042EA05
:100A100043228A6001688A6822F480628A600168E1
:100A20008A68406942EA8020886010BD0023014046
:100A300000E0FFFF0000F0FF2DED048B88B068465A
:100A40009FED180ADFED180A8DED070AB2EE070ACE
:100A500006F03EF89FED158B9FED169B174C00BFDF
:100A600005F0E4FF10EE100AFFF742FD53EC182BDF
:100A7000FFF75DFC53EC192BFFF7CBFCFFF74BFDA9
:100A800000EE100A684605F0F9FF8DED070A012314
:100A9000002207A9606A06F069FAC82006F0CCF9BE
:100AA000DEE7000000000000CDCCCC3D3E0AD7A31D
:100AB000701D5E40F6285C8FC2F5334000000020B8
:100AC000FEE70000014800F0F5BA00002809002008
:100AD000014800F0EFBA000088090020014800F04A
:100AE000E9BA00001803002001681823CAB2103ABE
:100AF000B2FBF3F2054B6FF30901032A9B5CC3655C
:100B000000D9091D8165084670470000BC9D00089A
:100B100010B5014600208B698A6A4FF0C07453B14A
:100B2000B3F5005F15D072B1012A0CD0022A0AD0A9
:100B3000032A09D104E01AB1012A06D0022A03D1FE
:100B4000C96AC90100D5012010BDC96AA142FAD005
:100B500010BD002AF7D0012AF2D0022AF3D0032ACE
:100B6000F3D010BD30B50468256825F480252560D4
:100B7000046863608368402B036803D09960006851
:100B8000C26030BD9A600068C16030BD704704200B
:100B900000F016BC0168CA6842F01002CA608022E8
:100BA000D0F8B81002F0F6BC72B6FEE7F8B504460D
:100BB0000D46836CD4E913100026884202D1002030
:100BC0001060F8BD814200D819440F1A17600AE07E
:100BD0003046761CB84202D229466D1C00E06946B8
:100BE000204600F006F8D4E913018142F0D101203B
:100BF000F8BDD0E913329A4201D100207047436C0E
:100C00009A5C0A70016D491C0165826C914201D3A6
:100C1000002101650120704778B50024009490F808
:100C20003C20012A19D0012280F83C200A680723C1
:100C30000568092A13D9EE680A3A02EB420293408A
:100C40009E43EE600B788A680A3B03EB43039A40AD
:100C50000368DD682A43DA6010E0022078BD2E695F
:100C600002EB420293409E432E610B788A6803EBAD
:100C700043039A4003681D692A431A614A681F2387
:100C8000072A13D205686E6B521E02EB8202934054
:100C90009E436E630B790A885B1E92B203EB83035B
:100CA0009A4003685D6B2A435A6327E005680D2A62
:100CB00012D22E6BD21F02EB820293409E432E6310
:100CC0000B790A88DB1F92B203EB83039A40036817
:100CD0001D6B2A431A6311E0EE6A0D3A02EB8202A1
:100CE00093409E43EE620B790A880D3B92B203EB70
:100CF00083039A400368DD6A2A43DA62164B05686B
:100D0000144A9D4206D10D68122D03D1556845F451
:100D10008005556005689D4218D10B68102B01D0E5
:100D2000112B13D1536843F4000353600968102951
:100D30000CD10A490A4A0968B1FBF2F101EB8101C1
:100D4000490000E0491E00910029FBD180F83C4099
:100D5000002078BD002301400020014080000020D9
:100D600040420F00006C70470068C06C704770B55F
:100D700004004FF0000503D0206C002610B107E0FE
:100D8000012070BD204600F01DF8666484F83C60C8
:100D9000206CC00610D4206C20F4885040F0020073
:100DA00020642046FFF7B4FD6664206C20F002004A
:100DB00040F00100206400E0012584F83C602846F2
:100DC00070BD000070B586B0044614216846FFF778
:100DD000A3FA1D491B4E256800231B4A143903241E
:100DE0001A48B54211D1156845F48075156012682E
:100DF00002F4807205920A6842F004020A600968EF
:100E000001F004010591012113E0114EB54216D104
:100E1000156845F400751560126802F400720592B9
:100E20000A6842F004020A60096801F004010591B1
:100E30000221CDE900140293694600F0CDFA06B014
:100E400070BD00000020014044380240000802400C
:100E5000002101402DE9F041044600680D468168FB
:100E60004FF0000749050BD58068C00508D5206CF8
:100E700040F02000206484F83C700120BDE8F0813F
:100E800000F0ACFB064613E0681C11D025B100F061
:100E9000A5FB801BA8420BD920680068800707D4F7
:100EA000206C40F00400206484F83C700320E5E7E7
:100EB000206800688007E7D521686FF0120008609D
:100EC000206C40F4007020642068816811F0405F5D
:100ED00013D1217E89B9C16A11F4700F02D08068E4
:100EE00040050AD4206C20F480702064206CC0047B
:100EF00003D4206C40F0010020640020BEE7000015
:100F000018B50021009190F83C20012A07D0012259
:100F100080F83C2002689368DB0702D011E00220D1
:100F200018BD936843F0010393602E4A2E4B12685C
:100F3000B2FBF3F202EB420200E0521E0092002AE2
:100F4000FBD102689368DB0742D0036C40F2016476
:100F5000A34343F48073036453685B0505D5036CB6
:100F600023F4005343F480530364036CDB0404D57F
:100F7000436C23F00603436400E0416480F83C10B6
:100F80001A496FF02203136049680068CA061849BD
:100F900006D0884224D1816811F0405F13D01FE051
:100FA0008842F8D0134A904203D1D1F80423D206E4
:100FB000F1D0114A904213D1D1F8041301F01F016E
:100FC0001029E8D30CE0816841F08041816007E09E
:100FD000016C41F010010164416C41F00101416478
:100FE000002018BD8000002040420F000023014077
:100FF0000020014000210140002201402DE9F04184
:101000000446876D00F0EAFA064694F8350000259C
:10101000022806D08020606584F834500120BDE8A5
:10102000F0812068016821F01601016020684169A3
:1010300021F080014161206C08B9A06C20B12068CA
:10104000016821F0080101602068016821F00101B8
:1010500001600CE000F0C2FA801B052807D92020AF
:101060006065032084F8350084F83450D7E72068A1
:101070000068C007EED194F85C103F208840B8604B
:10108000012084F8350084F834500020C7E790F838
:101090003510022903D080214165012070470521C8
:1010A00080F835100068016821F00101016000201E
:1010B000704700002DE9F84304464FF00009CDF8D1
:1010C000009063484FF41651A56D0068B0FBF1F72E
:1010D0002E6894F85C10082000FA01F131420FD01C
:1010E00021680A6852070BD50A6822F004020A60D8
:1010F00094F85C108840A860606D40F00100606565
:1011000094F85C104FF0010808FA01F0304208D062
:1011100021684969090604D5A860606D40F00200A5
:10112000606594F85C1004208840304208D0216843
:101130000968890704D5A860606D40F00400606507
:1011400094F85C1010208840304218D0216809685B
:10115000090714D5A86020680168490304D5006810
:10116000000308D5A16C07E00168C90503D4016834
:1011700021F008010160216C09B12046884794F8EC
:101180005C1020208840304231D021680968C906AF
:101190002DD5A86094F8350005282068016806D090
:1011A000490347D5006800031DD4616C1CE021F0A1
:1011B000160101602068416921F080014161206CC5
:1011C00008B9A06C20B12068016821F00801016015
:1011D00094F85C103F208840A86084F8358084F83B
:1011E0003490216D1FE0E16B09B120468847606DA6
:1011F00000282BD0606DC00714D0052084F835007E
:101200002068016821F0010101600098401C0090F5
:10121000B84203D820680068C007F6D184F835804A
:1012200084F83490E16C002910D001B02046BDE86C
:10123000F04308470168C905D5D4016821F01001C1
:10124000016084F8358084F83490CCE7BDE8F883F9
:10125000800000202DE9F041044600F0BFF9064669
:101260005CB1022084F83500002584F834502068F1
:10127000016821F0010101600DE00120BDE8F0816D
:1012800000F0ACF9801B052805D9202060650320FB
:1012900084F83500F2E720680068C007F0D12268C2
:1012A000116820480140D4E901031843D4E903360A
:1012B0003343184363691843A3691843E369184328
:1012C000236A18430843616A042903D1D4E90B1344
:1012D00019430843106020684069666A20F00701DE
:1012E00030460E43012704280CD1A06A0643E06A69
:1012F00040B12046FFF70CFC20B14020606584F827
:101300003570BAE7206846612046FFF7EDFB94F898
:101310005C203F2191408160656584F83570002034
:10132000ACE700003F8010F02DE9F0410446866DE7
:1013300090F83400002501280DD0012084F83400F5
:1013400094F835700020012F07D084F8340002256E
:101350002846BDE8F0810220FBE7022784F83570BB
:1013600060652046FFF7FEFB94F85C103F20884044
:10137000B0602068016841F016010160206C20B166
:101380002068016841F0080101602068016841F0AF
:1013900001010160DCE7000070B5044600F01EF9B1
:1013A0000546601C02D004480078044400F016F999
:1013B000401BA042FAD370BD7400002070470000AB
:1013C000044910B50A68024202D00860FFF7F6FF30
:1013D00010BD0000143C01402DE9F84FDFF8BCA11E
:1013E0000022012503264FF00F090AF1040BAAF190
:1013F000040E00BF0B6805FA02F42340A34270D12B
:101400000F7907F00307012F01D0022F16D187684B
:101410004FEA420806FA08FC27EA0C07D1F80CC08C
:101420000CFA08FC4CEA070CC0F808C04768A74350
:101430000C79C4F3001494403C4344600C79E443B9
:10144000A4070AD0C4684FEA420C06FA0CF7BC4362
:101450008F6807FA0CF72743C7600C7904F0030480
:10146000022C12D1D40800EB840CDCF82040570782
:10147000FF0E09FA07F824EA0804D1F8108008FAE8
:1014800007F848EA0408CCF8208004684FEA420CC8
:1014900006FA0CF7BC430F7907F0030707FA0CF7BD
:1014A000274307604C6814F4403F70D03C4C2768D9
:1014B00047F480472760246822F0030704F480443F
:1014C0000094384C07EB040CDCF8084897074FEA07
:1014D000177809FA08F7BC43334FB84202D1002706
:1014E00024E054E0314FB84201D101271EE0304FD3
:1014F000B84201D1022719E02E4FB84201D103278B
:1015000014E02D4FB84201D104270FE02B4FB84211
:1015100001D105270AE02A4FB84201D1062705E08C
:10152000284FB84201D1072700E0082707FA08F73B
:101530002743CCF80878DAF800405746D1F804C0C1
:101540009C435FEACC2C00D51C433C60DBF8004098
:101550005F46D1F804C09C435FEA8C2C00D51C4345
:101560003C60DEF800407746D1F804C09C435FEA57
:101570008C3C00D51C433C60084F083F3C68D1F8C8
:1015800004C09C435FEACC3C00D51C433C60521C29
:10159000102AFFF42FAFBDE8F88F0000083C01408F
:1015A0004438024000300140000002400004024084
:1015B00000080240000C02400010024000140240EB
:1015C00000180240001C02400069084000D00120C1
:1015D00070470AB1816170470904FBE701488068E0
:1015E000704700007400002070B5040025D094F806
:1015F0003D00002520B984F83C50204600F050F909
:10160000242084F83D002068016821F00101016078
:101610002068016841F4004101602068016821F4FC
:101620000041016000F05AFB4D4A6168914201D8C7
:101630004C4900E04C49884201D2012070BD4B4921
:101640002368B0FBF1F15E6826F03F060E435E6052
:101650006368934206D94FF4967359434FF47A73F3
:10166000B1FBF3F12368491C1E6A26F03F063143A3
:1016700019626168914210D84900401EB0FBF1F236
:10168000521CC2F30B02042A01D2042022E0B0FB58
:10169000F1F0401CC0F30B001CE0A268F2B301EBB8
:1016A000C10303EB0116431EB3FBF6F35B1C43F4CB
:1016B00080431B0549D092B301EBC10202EB01113B
:1016C000401EB0FBF1F0401CC0F30B0040F4804022
:1016D00040F400402168CA694CF6FF739A431043F6
:1016E000C861D4E9071001432068026822F0C002F3
:1016F00011430160D4E9030101432068826848F284
:10170000FF339A4311438160D4E9050108432168FE
:10171000CA6822F0FF021043C86001E00EE016E044
:101720002068016841F0010101602564202084F8EF
:101730003D00256384F83E50002070BD01EB41065A
:10174000431EB3FBF6F35B1CB3E70120C2E701EBDA
:101750004101401EB0FBF1F0401CC0F30B00B7E7A5
:10176000A086010080841E0000093D0040420F0059
:101770002DE9FF4F83B09A46DDE911979346044661
:10178000DDF84080FFF72AFF054694F83D00202849
:101790007FD11923012240492046009501F0FEFF28
:1017A000002876D194F83C00012872D0012084F8FA
:1017B0003C0020680168C90703D1016841F00101BC
:1017C00001602068016821F400610160212084F833
:1017D0003D00402084F83E0000262664C4F82480A2
:1017E000A4F82A90608D20852C48E062CDE9007530
:1017F00053465A462046049901F056FF70B930E02E
:101800002A463946204602F048F858B1206C042890
:1018100004D12068016841F400710160012007B023
:10182000BDE8F08F606A216800780861606A401C3A
:101830006062218D491E89B22185628D521E6285AA
:1018400022685369DB435B070BD469B100781061F0
:10185000606A401C6062208D401E2085608D401EA5
:101860006085208D0028CBD12A463946204601F0DC
:101870006FFF0028CAD154F83D0B016841F4007194
:101880000160202004F81E09E67766770020C6E78D
:10189000FFE70220C3E70000020010000000FFFF86
:1018A0002DE9F04186B0044614216846FEF734FD68
:1018B0002B4A2168DFF8AC802A4812240125032630
:1018C000042708F11008914219D1016841F0020182
:1018D00001600068694600F00200059030028DE862
:1018E000F1002148FFF778FDD8F8001041F400110D
:1018F000C8F80010D8F8000000F400102BE01B4AD4
:10190000914229D1016841F004010160016801F0B0
:1019100004010591016841F0010101600068694618
:1019200000F00100059050158DE8F1001048FFF718
:1019300053FD4FF480708DE8F10069460D48FFF7C4
:101940004BFDD8F8001041F40001C8F80010D8F899
:10195000000000F40000059006B0BDE8F081000032
:10196000005400403038024000040240005C004057
:10197000000802400000024070B5040011D0216848
:101980004CF6CC400860216845F255500860D4E917
:10199000000141602168A0688860FFF71FFE0546CE
:1019A0000DE0012070BD00BFFFF718FE401B31287D
:1019B00005D92068C068800701D0032070BD206869
:1019C000C0688007F0D121684AF6AA20086000208C
:1019D00070BD00684AF6AA2101600020704700002F
:1019E00002488168027811448160704774000020C9
:1019F0000B4810B5016841F400710160016841F4C1
:101A000080610160016841F480710160032000F091
:101A100099F80F2000F006F800F04AF8002010BDF9
:101A2000003C024030B505461C4887B000240168E0
:101A300041F400310160006806A900F40030009014
:101A400001A800F02BF900F059F915494000B0FB4E
:101A5000F1F11548134A491E026040F2E732C0E92D
:101A60000324C0E90114846100F086FD040012D152
:101A70000D4800F023FE04000DD1192000F034F8C9
:101A8000102D07D200222946192000F03BF8074804
:101A9000056000E0012407B0204630BD4438024014
:101AA00040420F0000440140E80900207800002077
:101AB0000C4882B0016841F480410160006800F484
:101AC000804000900748001F016841F0805101608C
:101AD0000068002200F0805000900F21901E02B09C
:101AE00000F010B844380240002809DB00F01F0263
:101AF000012191404009800000F1E020C0F8001170
:101B000070470000F0B40E4B1B680C46C3F3022371
:101B1000C3F10705042D00D90425191D072901D299
:101B2000002300E0DB1E012606FA05F1491E2140D4
:101B300099409E40761E16403143F0BC04F094B9A3
:101B40000CED00E0064900F0070208684FF6FF03BD
:101B5000184040EA0220034A104308607047000022
:101B60000CED00E00000FA052DE9F0470E460500F7
:101B700065D0DFF81481D8F80000F7B200F0070054
:101B8000B04207D288F80070D8F8000000F00700D3
:101B9000B04254D128683D4C810712D5400703D587
:101BA000206840F4E05020602878000703D52068C2
:101BB00040F4604020602068A96820F0F0000843ED
:101BC00020602878C0072DD030496868083901287E
:101BD00012D0022813D0032811D0096889070029E0
:101BE0002DDA216821F0030101432160FFF7F6FCA3
:101BF000814641F2883A0EE009688903EFE70968F7
:101C00008901ECE7FFF7EAFCA0EB0901514502D995
:101C10000320BDE8F0872068696800F00C00B0EB95
:101C2000810FEFD1D8F80010404601F00701B14212
:101C300007D90770006800F00700B04201D001200A
:101C4000E7E72878400705D52068E96820F4E050E8
:101C5000084320602878000706D52068296920F409
:101C6000604040EAC100206000F058F82168084A4E
:101C7000C1F30311515CC84006490860064800687A
:101C8000FFF7D0FE0020C4E7003C024008380240C5
:101C9000C49D000880000020780000200F22026010
:101CA0000C4A136803F003034360136803F0F00366
:101CB0008360136803F4E053C36012684FF4E05389
:101CC00003EAD20202610448006800F007000860DD
:101CD0007047000008380240003C024004480549B3
:101CE00000680968044AC1F38221515CC84070470A
:101CF0008000002008380240D49D000804480549AF
:101D000000680968044AC1F34231515CC840704719
:101D10008000002008380240D49D0008154810B506
:101D2000006810F00C02144813D04110042A0FD0A0
:101D3000082A0ED10F4C241F2268236802F03F02AC
:101D40005B0207D52068C0F38810A0FB010106E004
:101D5000084610BD2168C1F38811A1FB00010023D2
:101D6000FEF790FA2168C1F30141491C4900B0FB1C
:101D7000F1F010BD083802400024F4002DE9F84FBE
:101D800004006ED02078DFF84C93C007A9F1040559
:101D90004AD009F104000168C1F38101012908D08A
:101DA0000068C0F3810002280AD1D9F8000040027F
:101DB00006D52868800337D560680028E1D033E075
:101DC0006068B0F5803F10D0B0F5A02F286810D023
:101DD00020F480302860286820F480202860606823
:101DE000A8B1FFF7FBFB06460DE0286840F4803001
:101DF000F4E740F480202860F7E700BFFFF7EEFB30
:101E0000801B642873D828688003F7D50CE0FFF79F
:101E1000E5FB064605E000BFFFF7E0FB801B6428FA
:101E2000F0D828688003F7D42078DFF8AC828007E8
:101E30004FF0000A3ED5A748001D016811F00C0FB5
:101E400008D00068C0F3810002280BD1D9F8000047
:101E5000400207D42868800716D5E068012800D121
:101E600012E033E1E068B8B10120C8F80000FFF7E4
:101E7000B5FB064605E000BFFFF7B0FB801B02285C
:101E8000C0D828688007F7D52868216920F0F800B5
:101E900040EAC10028600DE0C8F800A0FFF79EFBF3
:101EA000064604E0FFF79AFB801B02281FD828682B
:101EB0008007F7D42078000722D5864F87486169CC
:101EC000703771B101210160FFF788FB064604E01D
:101ED000FFF784FB801B022809D838688007F7D5F4
:101EE0000EE0C0F800A0FFF779FB064605E082E0AF
:101EF000FFF774FB801B02287DD838688007F7D471
:101F00002078400768D5DFF8CCB100270BF13C0BF7
:101F1000DBF80000C0000BD4DBF8001041F080516A
:101F2000CBF80010DBF80000012700F08050009093
:101F30006B4E3068C00510D4306840F4807030605B
:101F4000FFF74CFB009005E0FFF748FB0099401AB3
:101F5000022850D83068C005F6D55E4EA0686C36B1
:101F600001280FD00528306810D020F00100306023
:101F7000306820F004003060A068B8B1FFF72EFB95
:101F800000900FE0306840F00100F4E740F00400FA
:101F90003060F7E7FFF722FB0099411A41F28830E1
:101FA000814266D830688007F4D50EE0FFF716FB53
:101FB000009007E0FFF712FB0099411A41F28830C8
:101FC000814256D830688007F4D42FB1DBF8001076
:101FD00021F08051CBF80010A069C8B33D49091D1C
:101FE0000968C1F3810102294AD00228504607D06E
:101FF000C8F8600000E03CE0FFF7F0FA04463BE080
:102000004746C8F86000FFF7E9FA064605E000BF5A
:10201000FFF7E4FA801B02282BD828688001F7D448
:10202000D4E907010843A16A2E4A490802EB01419D
:10203000626A41EA8211084394F82C1040EA016177
:10204000C9F8001001203866FFF7C8FA044606E018
:102050003EE000BFFFF7C2FA001B022809D828683B
:102060008001F7D534E000BFFFF7B8FA001B022863
:1020700002D90320BDE8F88F28688001F4D427E056
:102080000128F7D0D9F80000E26900F480019142FC
:102090001CD1226A00F03F01914217D147F6C0716E
:1020A000626A0140B1EB821F10D1A26A4FF0FF3388
:1020B00000F4403103EB5202B1EB024F06D194F829
:1020C0002C1000F07060B0EB016F01D00120D1E75F
:1020D0000020CFE70438024000004742800E47420C
:1020E000007000400000FFFF704770B5040009D089
:1020F000606A002540B125616561A56294F85100D0
:1021000040B10CE0012070BD6068B0F5827FF4D072
:10211000E561F2E784F85050204600F045F80220CF
:1021200084F851002068016821F040010160A08816
:10213000218900F4827001F404410843A18901F46B
:1021400000610843217C01F002010843217D01F078
:1021500001010843218B01F400710843217F01F044
:102160003801084394F8201001F080010843218DC4
:1021700001F40051084321680860A069042101EAC4
:10218000104094F8241001F01001084321684860C1
:102190002068C16921F40061C1616565012084F88E
:1021A0005100002070BD000070B586B006461421B5
:1021B0006846FEF7B1F820493068884239D11F4897
:1021C0000025016841F480510160006800F48050EE
:1021D00005901A481438016841F001010160006857
:1021E000694600F001000590E02000900220019077
:1021F0000120029003200390052004901048FFF76F
:10220000EBF8114C0F4820604FF0C0606060402038
:10221000C4E902050001C4E90405A561E561256280
:1022200020466562FFF716F808B1FEF7BDFCB464FE
:10223000A66306B070BD0000003001404438024083
:102240000000024058640240180300202DE9F84FB6
:10225000044690F8500000271D461646894601287E
:102260000DD04FF0010B84F850B0FFF7B7F980465E
:1022700094F85100BA46012804D0022793E00220C6
:10228000BDE8F88FB9F1000F73D0002E71D0032094
:1022900084F85100C4F854A0C4F83090A686E686AD
:1022A000C4F838A0A4F83CA0A4F83EA0C4F844A008
:1022B000C4F840A0A068B0F5004F09D120680168BB
:1022C00021F0400101602068016841F48041016013
:1022D00020680168490603D4016841F040010160AB
:1022E000E068B0F5006F606803D030B3012E24D0F1
:1022F00041E008B1012E1CD1206B21680088C86024
:1023000006E020688168890709D5216B0988C160CA
:10231000206B801C2063E08E401EE08609E0FFF702
:102320005DF9A0EB0800A84202D3681C01D031E09F
:102330007DB3E08E0028E4D120E0206B2168007896
:10234000087306E020688168890709D5216B097840
:102350000173206B401C2063E08E401EE0860AE083
:10236000FFF73CF9A0EB0800A84203D3681C02D099
:1023700010E017E06DB1E08E0028E3D14246294617
:10238000204602F00DFC08B120206065A06818B15D
:1023900006E0FFE7032706E02068C1688068009038
:1023A000606D00B1012784F851B084F850A0384620
:1023B00066E700002DE9F041044690F85000002641
:1023C000012809D0012784F8507094F851000025A5
:1023D000012804D002264EE00220BDE8F08189B138
:1023E00082B1032084F8510065652163A286E286EC
:1023F000A56365642564A587E587A068B0F5004FEF
:1024000002D00BE0012636E02068016821F040018F
:1024100001602068016841F480410160A16C1848A6
:102420000864A16C1748C863A16C1748C864A06C05
:102430000565E38E2268216B0C32A06CFEF774FFF9
:1024400038B1606D40F010006065012684F851706D
:1024500011E020680168490603D4016841F0400199
:1024600001602068416841F02001416020684168B6
:1024700041F00201416084F850503046ADE7000061
:10248000334B00083D4B0008114B00087047704764
:102490007047704710B590F83C20012A22D00122E5
:1024A00080F83C20CA688C6822F4407222434C6851
:1024B00022F4806222430C6822F4006222430C69F9
:1024C00022F4805222434C6922F400522243C9690B
:1024D000002322F480420A4301684A6480F83C30B9
:1024E000002010BD022010BD70B590F83C20012ADC
:1024F00032D0012480F83C40022280F83D2003685D
:102500005A689D6822F070060A6832435A60134B7D
:1025100002689A4214D0B2F1804F11D0104B9A4207
:102520000ED0104B9A420BD00F4B9A4208D00F4B53
:102530009A4205D00E4B9A4202D00E4B9A4204D1D9
:10254000496825F080031943916080F83D400021DF
:1025500080F83C10084670BD022070BD00000140AC
:102560000004004000080040000C0040000401404E
:10257000004001400018004010B5040003D094F85A
:102580003D0010B107E0012010BD002084F83C00A0
:10259000204600F01FF8022084F83D00211D20682D
:1025A00002F0DEFC012084F8460084F83E0084F846
:1025B0003F0084F8400084F8410084F8420084F829
:1025C000430084F8440084F8450084F83D0000206E
:1025D00010BD0000F0B587B0044614216846FDF731
:1025E0009BFE216800243048B1F1804F0CD02F4A67
:1025F000914242D1016841F008010160006800F099
:102600000800059007B0F0BD016841F001010160CC
:10261000006800F00100059023481038016841F07F
:1026200002010160016801F002010591016841F0B9
:10263000010101600068022500F00100059040F6EC
:102640000840CDE9000502AA0326012782E8D00050
:1026500069461748FEF7C0FEA803CDE9000502AAA7
:10266000694682E8D0001348FEF7B6FE0022052135
:102670001C20FFF747FA1C2012E00F488142C1D10D
:102680000948001D016841F0020101600068002254
:1026900000F00200059005212C20FFF733FA2C20D2
:1026A000FFF722FAAEE7000040380240000C00407D
:1026B00000040240000002400004014090F83D1078
:1026C000012901D001207047022180F83D100168E6
:1026D000CA6842F00102CA6000681149884214D0F9
:1026E000B0F1804F11D00F4988420ED00E49884278
:1026F0000BD00E49884208D00D49884205D00D49BB
:10270000884202D00C49884204D1816801F0070157
:10271000062903D0016841F00101016000207047E3
:10272000000001400004004000080040000C004090
:1027300000040140004001400018004070B504460C
:1027400090F83C000025012817D0012684F83C6051
:10275000022084F83D002068826822F0770222F48B
:102760007F4282600868502838D00DDC20284FD086
:1027700005DC90B3102811D14AE0022070BD30284A
:1027800046D040280AD13BE060282FD070280DD0D9
:10279000B0F5805F03D0B0F5005F12D0012584F85A
:1027A0003D60002084F83C00284670BDCB68D1E92C
:1027B0000121206802F045FC2068816841F0770122
:1027C00009E0CB68D1E90121206802F03AFC2068D9
:1027D000816841F480418160E1E719E0CA68496895
:1027E000206802F003FD5021206806E0CA684968AD
:1027F000206802F04DFD6021206802F02CFCCEE73D
:10280000CA684968206802F0F1FC40212068F4E7BA
:10281000226801461046F0E72DE9F0470168B1F162
:10282000804F2CD1304E017F0127304875424FF048
:10283000FF38012913D0022927D0042936D00829CE
:102840001DD12B4C4FF4807A81462168491C2160B0
:102850005146FEF7B9FE01283CD0514621E0244CF8
:102860008146303C2168491C21602021FEF7ACFEE6
:1028700001282FD0202114E0A06027E0A660BDE849
:10288000F087B042FBDAA560F9E7194C8146203C9D
:102890002168491C21604021FEF796FE012819D0CD
:1028A00040214846FEF790FEC0B10FE0104C814633
:1028B000103C2168491C21608021FEF785FE01281B
:1028C0000CD080214846FEF77FFE18B1A068A842D0
:1028D000D7DDD3E76760A068401CCDE7C4F804806B
:1028E000A068401EC8E70000003E14F40018024033
:1028F0003C0100202DE9F041054690F83C000026FF
:102900000C46012810D0012085F83C0072B1042A41
:102910001CD0082A2CD00C2A50D00126002085F883
:102920003C003046BDE8F0810220FBE7D4E900120C
:10293000E368286802F06CFC2868816921F00C01CA
:10294000816128688169A26811430FE0D4E900120F
:10295000E368286802F0AEFC2868816921F44061D0
:10296000816128688169A26841EA02218161D5E715
:102970002868D4E9002C277B016A21F48071016268
:10298000C169036A21F0030141EA0C0121F0F00C56
:1029900039074FF420674CEA116123F4206307EAFA
:1029A00002221A43C16102622868C16921F00C0148
:1029B000C1612868C169A268114328E02868D4E988
:1029C0000027E168036A23F480530362D0F81CC037
:1029D000036A2CF4407C4CEA07274FF6FF7C27F46F
:1029E00070470CEA013139434FF4204723F4204368
:1029F00007EA02321A43C16102622868C16921F400
:102A00004061C1612868C169A26841EA0221C161CF
:102A100084E710B5040003D094F83D0010B107E03E
:102A2000012010BD002084F83C00204600F01EF874
:102A3000022084F83D00211D206802F091FA012057
:102A400084F8460084F83E0084F83F0084F8400093
:102A500084F8410084F8420084F8430084F844007C
:102A600084F8450084F83D00002010BD7047000048
:102A700030B50446002551B104290DD0082910D0E5
:102A800094F8410094F84520012811D10EE094F803
:102A90003E0094F84220F7E794F83F0094F8432072
:102AA000F2E794F8400094F84420EDE7012A01D0C1
:102AB000012030BD022059B1042912D0082919D0B3
:102AC00084F8410084F845000C2944D0012540E0F9
:102AD00084F83E0084F842002068C26842F0020296
:102AE00010E084F83F0084F843002068C26842F098
:102AF000040207E084F8400084F844002068C268BB
:102B000042F00802C2600122206802F08DFA1449E6
:102B10002068884214D0B0F1804F11D0114988420A
:102B20000ED0114988420BD01049884208D0104974
:102B3000884205D00F49884202D00F49884204D10B
:102B4000816801F00701062903D0016841F0010105
:102B50000160284630BD2068C26842F01002D1E70B
:102B6000000001400004004000080040000C00404C
:102B700000040140004001400018004070B50446C8
:102B8000006801694FF00005C943890715D4C16881
:102B9000C943890711D4E91E01610120207720680B
:102BA00080698007204602D0FFF736FE04E000F07F
:102BB000F1F8204600F096F9257720680169C943AD
:102BC000490717D4C168C943490713D46FF00401FA
:102BD0000161022020772068806910F4407F204640
:102BE00002D0FFF719FE04E000F0D4F8204600F010
:102BF00079F9257720680169C943090716D4C168A6
:102C0000C943090712D46FF008010161042020773D
:102C10002068C0698007204602D0FFF7FDFD04E070
:102C200000F0B8F8204600F05DF9257720680169CA
:102C3000C943C90617D4C168C943C90613D46FF084
:102C400010010161082020772068C06910F4407FDE
:102C5000204602D0FFF7E0FD04E000F09BF820469C
:102C600000F040F9257720680169C943C90708D1F8
:102C7000C168C943C90704D1891E0161204600F01B
:102C800097F920680169C943090609D4C168C94395
:102C9000090605D46FF0800101612046FFF7F8FBBB
:102CA00020680169C943490609D4C168C943490676
:102CB00005D46FF040010161204600F0E1F9206881
:102CC0000169C94389060BD4C168C943890607D481
:102CD0006FF0200101612046BDE87040FFF7D9BBCD
:102CE00070BD000010B586B0044614216846FDF79B
:102CF00013FB2368204C214902200322A34210D158
:102D00000B6843F002030B600968CDE9020201F091
:102D1000020105913321CDE900100490694618485D
:102D200012E0184CA34213D10B6843F001030B606F
:102D30000968CDE9020201F0010105910F21CDE9F9
:102D40000010049069461048FEF746FB06B010BD1F
:102D50000E4CA342FAD10B6843F004030B600968E0
:102D6000CDE9020201F004010591C021CDE9001076
:102D7000694607480492E7E7000400403038024003
:102D800000040240000C004000000240000401402A
:102D900000080240704770B5044690F83C000026D9
:102DA0000D4601280FD0012084F83C006AB1042AA6
:102DB0001DD0082A2FD00C2A3FD00126002084F8ED
:102DC0003C00304670BD022070BD206802F04CF916
:102DD0002068816941F0080181612068816921F0E2
:102DE00004018161206881692A69114311E020682A
:102DF00002F06AF92068816941F40061816120680C
:102E0000816921F480618161206881692A6941EAD0
:102E100002218161D2E7206802F08CF92068C16943
:102E200041F00801C1612068C16921F00401C1615C
:102E30002068C1692A69114311E0206802F0AEF9E7
:102E40002068C16941F40061C1612068C16921F451
:102E50008061C1612068C1692A6941EA0221C161BA
:102E6000ACE710B5040003D094F83D0010B107E0C2
:102E7000012010BD002084F83C00204600F01EF820
:102E8000022084F83D00211D206802F069F801202D
:102E900084F8460084F83E0084F83F0084F840003F
:102EA00084F8410084F8420084F8430084F8440028
:102EB00084F8450084F83D00002010BD08B5006886
:102EC0000649884208D10648016841F002010160C4
:102ED000006800F00200009008BD000000040040FF
:102EE000403802407047000010B50446022249B144
:102EF00004290ED0082913D094F84100012816D0D7
:102F0000012010BD94F83E000128F9D184F83E203C
:102F10000FE094F83F000128F2D184F83F2008E048
:102F200094F840000128EBD184F8402001E084F8B7
:102F300041200122206802F077F816492068164ADD
:102F4000884201D0904203D1436C43F40043436470
:102F50002068884213D0B0F1804F10D00F498842CA
:102F60000DD00F4988420AD00E49884207D09042BE
:102F700005D00D49884202D00C49884204D18168AD
:102F800001F00701062903D0016841F00101016049
:102F9000002010BD0000014000040140000400407A
:102FA00000080040000C00400040014000180040B4
:102FB00010B5044600682B49884201D1FEF710FD88
:102FC0002068B0F1804F4CD12748002190ED000AD5
:102FD000F8EEC00A9FED250A20EE801ADFED240AE4
:102FE000C1EE201A90ED011AB8EEC11A21EE811A35
:102FF00080ED031A01601F4890ED001AB8EEC11A67
:1030000021EE001AC1EE201A90ED011AB8EEC11A95
:1030100021EE811A80ED031A0160174890ED001A25
:10302000B8EEC11A21EE001AC1EE201A90ED011A75
:10303000B8EEC11A21EE811A80ED031A01600F4823
:1030400090ED001AB8EEC11A21EE000A80EE201AA7
:1030500090ED010AB8EEC00A21EE000A80ED030AE5
:10306000016010BD004401400C010020B91A513E1E
:103070009A9979401C0100202C0100203C0100207D
:103080007047704710B504460068406994F83D10D9
:10309000C0F3C010212911D180B12068143050E84C
:1030A000001F21F0800140E80012002AF5D1606B7A
:1030B00008B1FDF7A3FF204602F0F0FA206840694E
:1030C00094F83E10C0F38010222911D180B12068FD
:1030D000143050E8001F21F0400140E80012002A9F
:1030E000F5D1A06B08B1FDF789FF204602F0AFFAD9
:1030F000002010BD70470000F8B50168044608685C
:10310000CA684B6910F00F0F4FF0000559D003F05B
:10311000010602F49077374365D0C10705D0D10589
:1031200003D5216C41F001012164410705D5D90780
:1031300003D0216C41F002012164810705D5D90734
:1031400003D0216C41F004012164010707D502F08E
:103150002001314303D0216C41F008012164216C2E
:1031600000293AD0800604D5900602D5204602F008
:10317000A3FA20684069216CC0F38010090700D4CD
:1031800060B3204602F063FA20684069400621D50A
:103190002068143050E8001F21F0400140E8001280
:1031A000002AF5D1A06BA8B16C490165A06BFDF7B1
:1031B0006EFF002811D0A06B016D01B0BDE8F0409A
:1031C000084783060FD593060DD52046BDE8F84085
:1031D00002F072BA2046FFF78DFFF8BD2046FFF7D8
:1031E00089FF2564F8BD266B2023012E79D1C60600
:1031F00077D5D60675D508684868009048694006B6
:1032000040D5A16B086840680004000CEAD0A28D8C
:103210008242E7D9E085C869B0F5807F2DD020686B
:103220000C3050E8001F21F4807140E80012002AA1
:10323000F5D12068143050E8001F21F0010140E86A
:103240000012002AF5D12068143050E8001F21F048
:10325000400140E80012002AF5D184F83E30256391
:1032600020680C3050E8001F21F0100140E80012E7
:10327000002AF5D1A06BFDF7C1FEA08DE18D401AAB
:1032800081B229E0A08DE18D401A81B2E08D002845
:10329000A8D00029A6D020680C3050E8002F22F4D6
:1032A000907240E80026002EF5D12068143050E8D6
:1032B000002F22F0010240E80026002EF5D184F80C
:1032C0003E30256320680C3050E8002F22F01002B9
:1032D00040E80023002BF5D12046FFF7D2FEF8BDD1
:1032E000FFE705062BD5150629D594F83D002128C2
:1032F000F5D1A068B0F5805F01D12069B0B1206A36
:10330000411C2162216800784860E08C401E000466
:10331000000CE084E3D12068C16821F08001C16025
:103320002068C16841F04001C160D8E7206A008888
:10333000C0F308004860206A801C2062E5E7400670
:10334000CDD55006CBD5CA68204622F04002CA60CF
:1033500084F83D3000F08FF9C1E7000059550008AE
:1033600070B5040004D094F83D00002510B106E0CB
:10337000012070BD84F83C50204600F023F8242042
:1033800084F83D002068C16821F40051C1602046E6
:1033900002F0F2F92068016921F49041016120688E
:1033A000416921F02A0141612068C16841F400515E
:1033B000C1602564202084F83D0084F83E00002090
:1033C00070BD00002DE9F04786B00546142168461F
:1033D000FCF7A2FF6549644AD5F800C000246348A1
:1033E000143902230326072794451DD1026842F0B1
:1033F00010020260006800F010000590086840F0BC
:10340000010008600868694600F00100059070023C
:103410008DE8D9005648FDF7DFFF00220521252061
:10342000FEF770FB25203CE0504ADFF84881121F70
:10343000DFF844A14FF48069C44537D1106840F4E7
:1034400000301060106800F400300590086840F00B
:10345000080008600868694600F0080005906020D0
:103460008DE8D9005046FDF7B7FF454E4348306020
:103470004FF00060C6E90104C6E903497461B46114
:10348000F461346230467462FDF7E4FE08B1FDF782
:103490008BFBAE63002205212620B563FEF732FBCD
:1034A0002620FEF721FB06B0BDE8F087DFF8D480C8
:1034B000C4451ED1106840F480201060106800F4EC
:1034C00080200590086840F0080008600868694698
:1034D00000F0080005904FF440708DE8D900504688
:1034E000FDF77AFF002205212720FEF70BFB27209E
:1034F000D7E7254A9445D6D1026842F020020260FF
:10350000006800F020000590086840F04000086066
:103510000868694600F0400005904FF484408DE84B
:103520005900082004901948FDF756FF144E18481A
:10353000603630608005C6E90104C6E9034974615C
:10354000B461F461346230467462FDF783FE08B101
:10355000FDF72AFBAE63002205214720B563FEF785
:10356000D1FA47209DE70000001001404438024096
:103570000000024000440040000C0240886002400D
:1035800028090020004800400014014000180240B3
:103590002864024090F83E30202B0ED159B152B130
:1035A00090F83C30012B08D0012380F83C300023F8
:1035B000036302F067B9012070470220704770472B
:1035C000704700002DE9F843044690F83D001F467F
:1035D00016460D4620284CD1C5B1BEB194F83C002A
:1035E000012846D0012084F83C004FF00008C4F8C0
:1035F0004080212084F83D00FDF7F0FFA68481463D
:10360000E684A068B0F5805F03D004E00120BDE847
:10361000F883206928B12E465FF0000584F83C80CD
:103620000EE00026FAE78021204602F075F9A0B9E5
:10363000AEB116F8010B21684860E08C401EE084B2
:10364000E08C4B464FF0000200970028EBD14FF082
:103650004001204602F060F930B10320D7E735F889
:10366000020BC0F30800E6E7202084F83D000020AC
:10367000CDE70220CBE77047FEE701684A69D243F5
:1036800052050FD46FF480624A61002140F8301F68
:10369000202242738173026942F0040202610173C5
:1036A00001207047002070472DE9F8430446006868
:1036B0000D46DDE9089701689846164641F4807189
:1036C00001604B4600224FF001112046009700F0A8
:1036D00065F848B120680068C00502D54FF4007055
:1036E00020640320BDE8F883216805F0FE0008612E
:1036F0003B464A461549204600F084F888B92068C0
:103700004169806900903A464946204600F0C5F874
:1037100048B1206C042804D12068016841F400718C
:1037200001600120DEE7F5B2B8F1010F09D0216890
:10373000300A08613A464946204600F0AEF80028B3
:10374000E7D1206805610020CCE7000002000100FD
:1037500070B516460D4604460DE02046FFF78DFF76
:1037600008B1012070BD681C05D0FDF737FF801B34
:10377000A84207D835B120684069C0434007ECD45F
:10378000002070BD002044F8300F20216173A07329
:10379000216941F0200121612073E2E72DE9F04722
:1037A0001E4690460D460446C1F30747DDF82090BB
:1037B00008E0701C06D0FDF711FFA0EB0900B04235
:1037C0000FD876B12068012F18D0806925EA000053
:1037D0000004000C14D000214145EAD00020BDE8CF
:1037E000F087002044F8300F20216173A073216915
:1037F00041F02001216120730120F0E74069E5E7F5
:103800000121E9E72DE9F0479A4691460E46044624
:1038100000254FF02008C1F3074725E020684069E4
:10382000C043400514D42068016841F40071016070
:1038300021686FF480604861256384F83D8084F8D6
:103840003E50206C40F00400206484F83C501FE09F
:10385000B9F1FF3F08D0FDF7C1FEA0EB0A014945D1
:103860000CD8B9F1000F09D02068012F13D080695E
:1038700026EA00000004000C0BD0CFE744F8305FCC
:1038800084F80D80A573206940F020002061257325
:103890000120BDE8F0874069EAE770B516460D469D
:1038A00004460DE02046FFF7E8FE08B1012070BD98
:1038B000681C05D0FDF792FE801BA84207D835B1E1
:1038C00020684069C0430006ECD4002070BD002091
:1038D00044F8300F20216173A073216941F0200169
:1038E00021612073E2E7000041F2883003F0A4FA7E
:1038F000C94C0121606E03F0EBFB0121A06E03F0C7
:10390000E7FB0121206D03F0E3FB0121206E03F0B2
:10391000DFFB4FF4FA774FF47A784FF4FA694FF4FB
:10392000A0750121606E03F0D3FB90B10121A06E60
:1039300003F0CEFB00287ED00121206D03F0C8FBF0
:10394000002876D00121206E03F0C2FB002871D040
:103950005DE1A06C03F036FC404603F06DFA206F89
:1039600003F030FCA06B03F02DFC032003F03AF8C9
:10397000042003F037F84FF4B97602E0012003F099
:103980005BFA042004F02CF9B042F7DBA06C03F0E2
:1039900019FCC82003F050FAA06D03F013FCE06C92
:1039A00003F010FC032003F01DF8042003F01AF8C4
:1039B0009A4E02E0012003F03FFA042004F010F9CF
:1039C000B042F7DCE06B03F0FDFB032003F00AF8E4
:1039D000042003F007F8914E783602E0012003F04E
:1039E0002BFA032004F0FCF8B042F7DC606C03F023
:1039F000E9FB032002F0F6FF042002F0F3FF874EFC
:103A00001E3602E0012003F017FA032004F0E8F864
:103A1000B042F7DCA06C03F0D5FBE06B03F0D2FB07
:103A2000206F03F0CFFB484603F006FAA06E99E042
:103A300001E045E099E0A06B03F0C4FB606C03F08B
:103A4000C1FB032002F0CEFF042002F0CBFF4FF4B5
:103A5000E67602E0012003F0EFF9042004F0C0F85C
:103A6000B042F7DBE06B03F0ADFB032002F0BAFFDE
:103A7000042002F0B7FF4FF4C37602E0012003F008
:103A8000DBF9032004F0ACF8B042F7DBE06C03F0A4
:103A900099FB032002F0A6FF042002F0A3FF02E03E
:103AA000012003F0C9F9032004F09AF8B842F7DBCB
:103AB000E06B03F087FB384603F0BEF9A06CA1E091
:103AC000A06C03F07FFB404603F0B6F9206F03F0D3
:103AD00079FBA06B03F076FB032002F083FF042048
:103AE00002F080FF02E0012003F0A6F9042004F0B8
:103AF00077F82828F7DBE06C03F064FBC82003F0BC
:103B00009BF9A06D03F05EFB032002F06BFF042025
:103B100002F068FF424E02E0012003F08DF904201C
:103B200004F05EF8B042F7DCE06B03F04BFB0320DF
:103B300002F058FF042002F055FF384EB43602E080
:103B4000012003F079F9042004F04AF8B042F7DCD0
:103B5000A06C03F037FB206F03F034FB484603F002
:103B60006BF9206E03F02EFB51E0A06B03F02AFBF3
:103B7000032002F037FF042002F034FF02E00120AE
:103B800003F05AF9042004F02BF8A842F7DBE06CAC
:103B900003F018FB032002F025FF042002F022FFAF
:103BA0004FF4A56602E0012003F046F9042004F07A
:103BB00017F8B042F7DBE06C03F004FB032002F0DF
:103BC00011FF042002F00EFF4FF4AF7602E0012057
:103BD00003F032F9042004F003F8B042F7DB606C24
:103BE00003F0F0FA032002F0FDFE042002F0FAFEDA
:103BF00002E0012003F020F9042003F0F1FFA842C5
:103C0000F7DBE06B03F0DEFA06A001F09FFF012076
:103C100003F012F985E6000000000020D0FDFFFF50
:103C2000D8FAFFFF706964001FB5002116480091A3
:103C300001910291134A039102604FF44032C0E9AE
:103C400001210161017680F82010104AC0E90A21A3
:103C50000124C461C16080F830104461FDF787F829
:103C600008B1FCF7A1FF0A20CDE90004032002906F
:103C700069460548FCF7D0FF002801D0FCF794FF07
:103C80001FBD0000002001407C0100200100000F4A
:103C90007FB50024154800940194029412490394BE
:103CA00001604FF44031C0E901140461047680F8EA
:103CB00020400F49C0E90A140125C561C46080F89D
:103CC00030404561FDF753F808B1FCF76DFF0B205C
:103CD000CDE90005694602940448FCF79DFF0028E1
:103CE00001D0FCF761FF7FBD00210140C40100202D
:103CF0000100000F154808B5016841F4800101601A
:103D0000016801F480010091016841F40011016033
:103D10000068002200F40010009005211020FDF73B
:103D2000F1FE1020FDF7E0FE002205213920FDF70D
:103D3000E9FE3920FDF7D8FE002205213B20FDF7E2
:103D4000E1FEBDE808403B20FDF7CEBE3038024022
:103D500010B5604803F067F95F4C5E4A01212063AB
:103D60001032084603F0E2F95A4A0121606320321A
:103D7000084603F0DBF9574A0121A06330320846B8
:103D800003F0D4F9534A0121E0634032084603F0BE
:103D9000CDF9504A012120645032084603F0C6F99B
:103DA0004C4A012160646032084603F0BFF9494A79
:103DB0000121A0647032084603F0B8F9454A012198
:103DC000E0648032084603F0B1F9424A01212065DF
:103DD0009032084603F0AAF93E4A01216065A032FC
:103DE000084603F0A3F93B4A0121A065B03208461A
:103DF00003F09CF9374A0121E065C032084603F020
:103E000095F9344A01212066D032084603F08EF934
:103E1000304A01216066E032084603F087F92D4AF6
:103E20000121A066F032084603F080F90121E06626
:103E30002A4A084603F07AF9264A04212067483ABC
:103E4000084603F067F8234A6062303A04210520EF
:103E500003F060F81F4AA062183A0421052003F01D
:103E600059F8E0621E4A00211E4803F0D7F91C4AA7
:103E70006060243200211C4803F0D0F9184AA06089
:103E800048320021194803F0C9F9154AE0606C3244
:103E90000021174803F0C2F9114A20619032002135
:103EA000144803F0BBF90B4A6061B43A0021124890
:103EB00003F0B4F9074AA061903A00210F4803F0DB
:103EC000ADF9044AE0616C3A00210D4803F0A6F90F
:103ED000206210BD989B000800000020989C0008FC
:103EE000309A0008B94D0008E9380008E55B000881
:103EF000390A000891470008ED520008016B0008DC
:103F00002D7D00082DE9F04F87B014216846FCF79D
:103F100003FA7D480025016841F010010160016845
:103F200001F010010591016841F004010160016890
:103F300001F004010591016841F020010160016870
:103F400001F020010591016841F0800101600168E4
:103F500001F080010591016841F0010101600168F3
:103F600001F001010591016841F002010160016861
:103F700001F002010591016841F00801016001684A
:103F800001F008010591016841F0400101600068FD
:103F9000012200F04000059005215C48FDF719FB67
:103FA000DFF86CB1012203215846FDF712FB002215
:103FB0004FF480615846FDF70CFB00220421554860
:103FC000FDF707FB002210215348FDF702FB0022FA
:103FD0004FF240015148FDF7FCFA48F21E09002259
:103FE00049464F48FDF7F5FA42F21C0A00225146B5
:103FF0004C48FDF7EEFA01200426CDE90060CDE93A
:10400000020569464148FDF7E7F9032701204FF013
:104010001108CDE90207CDE9007869465846FDF759
:10402000DBF94FF4881002240096CDE901046946BB
:104030005846FDF7D1F9600200900120CDE9020455
:10404000019069465846FDF7C7F90120CDE90060A7
:10405000CDE9020469462F48FDF7BEF91020009013
:104060000120CDE90204019069462B48FDF7B4F91F
:104070004FF470460096CDE9015469462348FDF798
:10408000ABF901AA0120009682E891006946234815
:10409000FDF7A2F901AA0120CDF8009082E83100D5
:1040A00069461F48FDF798F901AA0120CDF800A044
:1040B00082E8310069461B48FDF78EF9F011CDE921
:1040C0000005694617480295FDF786F940200090E3
:1040D0000120CDE90204019069461048FDF77CF902
:1040E00001200090CDE90185694608480395FDF758
:1040F00073F9002205210820FDF704FD0820FDF7D3
:10410000F3FC07B0BDE8F08F3038024000100240E9
:104110000014024000080240000002400004024077
:10412000000C0240001802400D4810B50B49016018
:104130000C49416000214FF480428160C0E90312C4
:1041400041618161C1610162FDF74EFA002803D02F
:10415000BDE81040FCF728BD10BD00000054004031
:104160000C020020801A06000D4810B50B490160B2
:104170000C49416000214FF480428160C0E9031284
:1041800041618161C1610162FDF72EFA002803D00F
:10419000BDE81040FCF708BD10BD0000005C004009
:1041A00060020020801A0600094810B50749016026
:1041B0000321416040F2CF718160FDF7DDFB0028F3
:1041C00003D0BDE81040FCF7EFBC10BD003000404C
:1041D000B4020020104810B50E4901604FF48271FE
:1041E000416000218160C1604FF400720161C0E94B
:1041F00005121022C0E90721416281620A21C162D1
:10420000FDF773FF002803D0BDE81040FCF7CCBCDD
:1042100010BD000000300140C002002010B58AB07F
:1042200000242E4804940594069407940894099455
:104230000094019402944FF080410394016029217D
:10424000C0E9011449F64041C0E903148461FEF756
:1042500093F908B1FCF7A8FC4FF48050049004A92E
:104260001E48FEF76BFA08B1FCF79EFC1B48FEF7F0
:10427000D0FB08B1FCF798FC089408A917480994EA
:10428000FEF732F908B1FCF78FFC0120CDE90040C0
:1042900002940022694611480394FEF72BFB08B1F3
:1042A000FCF782FC042269460C48FEF723FB08B1A8
:1042B000FCF77AFC082269460848FEF71BFB08B1A8
:1042C000FCF772FC0C2269460448FEF713FB002839
:1042D00001D0FCF769FC0AB010BD00007803002093
:1042E00010B58AB0002407941C2168460894FCF796
:1042F00013F82248204901605321C0E9011444F613
:104300001F61C0E903148461FEF7ABFD08B1FCF73F
:104310004BFC079407A919480894FEF7E5F808B183
:10432000FCF742FC6020CDE90004029400226946BB
:1043300012480494FEF72FFD08B1FCF735FC042267
:1043400069460E48FEF727FD08B1FCF72DFC082250
:1043500069460A48FEF71FFD08B1FCF725FC0C2250
:1043600069460648FEF717FD08B1FCF71DFC034837
:10437000FEF7B8FC0AB010BD00040040C0030020E6
:1043800010B58EB000240794089409940A940B94F5
:104390001C2168460C94FBF7BFFF2B48294901609C
:1043A0005321C0E9011440F2E731C0E90314802130
:1043B0008161FEF7E1F808B1FCF7F6FB4FF480509D
:1043C000079007A92048FEF7B9F908B1FCF7ECFB04
:1043D0001D48FEF746FD08B1FCF7E6FB0B940BA960
:1043E00019480C94FEF780F808B1FCF7DDFB60205B
:1043F000CDE9000402940022694613480494FEF7B4
:10440000CAFC08B1FCF7D0FB042269460E48FEF74F
:10441000C2FC08B1FCF7C8FB082269460A48FEF74F
:10442000BAFC08B1FCF7C0FB0C2269460648FEF74F
:10443000B2FC08B1FCF7B8FB0348FEF753FC0EB022
:1044400010BD0000000C00400804002010B596B01C
:1044500000240F9410941194129413941C21684614
:104460001494FBF759FF202107A8FBF755FF2C48B0
:104470002A490160A721C0E9011440F2E731C0E9EF
:10448000031444618461FEF777F808B1FCF78CFBF4
:104490004FF480500F900FA92148FEF74FF908B153
:1044A000FCF782FB1E48FEF7DCFC08B1FCF77CFB46
:1044B000139413A91A481494FEF716F808B1FCF7E0
:1044C00073FB6020CDE900040294039404940594E6
:1044D0000022694612480694FEF75DFC08B1FCF71D
:1044E00063FB042269460E48FEF755FC08B1FCF751
:1044F0005BFB0794089409944FF400500A94CDE9AB
:104500000B4007A906480E94FDF7C4FF08B1FCF75D
:104510004BFB0348FEF7E6FB16B010BD000401405C
:10452000500400200C4810B50A4901604FF4E131F5
:104530004160002181600C22C160C0E904128161E8
:10454000C161FEF70DFF002803D0BDE81040FCF765
:104550002BBB10BD00100140180800200C4810B5FE
:104560000A4901604FF4E1314160002181600C2271
:10457000C160C0E904128161C161FEF7F1FE00284B
:1045800003D0BDE81040FCF70FBB10BD0044004055
:104590005C0800200C4810B50A4901604FF4E13175
:1045A0004160002181600C22C160C0E90412816178
:1045B000C161FEF7D5FE002803D0BDE81040FCF72E
:1045C000F3BA10BD00480040A00800200C4810B508
:1045D0000A4901604FF4E1314160002181600C2201
:1045E000C160C0E904128161C161FEF7B9FE002813
:1045F00003D0BDE81040FCF7D7BA10BD001401404D
:10460000E4080020FEE7FEE770B5002404F1B000E6
:10461000C0B200F099F8002000F096F8102000F0E9
:1046200093F80025002000F0A1F86D1CEDB2802D5C
:10463000F8D3641CE4B2082CE8D370BD10B58D200B
:1046400000F082F8142000F07FF8BDE81040AF20A1
:1046500000F07AB810B54FF4FA70FCF79DFEBDE893
:10466000104001F083BB10B50446B031C8B200F071
:104670006BF8102040EA141000F066F804F00F0008
:10468000BDE8104000F060B82DE9F041203A002468
:104690000D468046D6B27F2803D900208D1C804667
:1046A000EDB2102B29461FD8FFF7DDFF164F00BFD4
:1046B00004EB0610385C00F059F8641CE4B2082CD6
:1046C000F6D36D1CE9B24046FFF7CDFF5FF0000462
:1046D00004EB06103844007A00F048F8641CE4B299
:1046E000082CF5D3BDE8F081FFF7BDFF074906EBC5
:1046F000460001EB4005285D00F038F8641CE4B288
:10470000062CF8D3EEE70000CC930008A491000833
:104710002DE9F041984617460E46044600250DE067
:10472000434631462046FFF7AFFF0834E4B2782C09
:1047300002D90024B61CF6B26D1CEDB27A5D002AD7
:10474000EED1BDE8F081000001B584B001214FF445
:10475000807204A88DE807000B46002278210248E9
:10476000FDF706F805B000BD0C02002001B584B0CD
:1047700001214FF4807204A88DE807000B46402207
:1047800078210248FCF7F4FF05B000BD0C020020C0
:104790002DED028B86B0FFF751FFFFF735FF9FED40
:1047A0002E8A00238DED048A2CA202211846FFF7E1
:1047B000AFFF2C4C6FF07F450523002204A9606AEF
:1047C00002F076FB08B99DED048A2946206B02F0C1
:1047D00001FC18EE100AFBF78BFE41EC100B22A136
:1047E00053EC102B684601F02BFB00236A46022194
:1047F0001846FFF78DFF206860B31FA1684601F0DF
:104800001FFB00236A4619461846FFF781FF032065
:1048100003F0E6F902461CA1684601F011FB0023F3
:104820006A4604211846FFF773FF042003F0D8F905
:10483000024617A1684601F003FB00236A460621E1
:104840001846FFF765FF206B02F021FC322002F0D2
:10485000F3FAB1E710A1D1E7000000005349542D4D
:104860004B31330000000020426174746572793A64
:1048700025352E326656000053797374656D4F4BA3
:1048800021202020200000004C3A25366400000042
:10489000523A25366400000053797374656D4E6F8B
:1048A000744F4B212000000010B504462DED048B01
:1048B000B0EE408A90ED080A80ED100AD0ED110AA2
:1048C000C0ED120AD0ED000A30EEC81A80ED111AC0
:1048D000D0ED050A9FED839AF5EEC00AF1EE10FACD
:1048E0000DDDB4EEE01AF1EE10FA08D2F1EE600A36
:1048F000B4EEE01AF1EE10FA01DD84ED119A94F8AD
:10490000340020B1012807D002281DD137E0D4EDB2
:10491000010A94ED111A46E0D4ED150AF5EEC00A2D
:10492000F1EE10FA09D078EE600A94ED141AD4ED85
:10493000011A01EEE01A84ED141AD4ED140A30EED7
:10494000200A00BF84ED100AA06D80B100EE100AAD
:10495000D4ED020AB8EEC00A20EE200AD4ED110A06
:1049600020EE200AB5EEC00AF1EE10FA53D294F808
:104970002800D8B1012820D0022835D183E094ED59
:10498000110A94ED0E1AF0EEC00A94ED0F0A01EE32
:10499000200A01F0C1FAD4ED010A94ED111A60EE7B
:1049A000200A94ED100A00EE810ACBE794ED020A8A
:1049B000D4ED110A60EE200A0EE094ED110A94ED98
:1049C0000B1AF0EEC00AF4EEC10AF1EE10FA0BD2A7
:1049D000D4ED020A60EE800A94ED041A94ED130AF5
:1049E00000EE810A84ED130A94ED090AB5EEC00ABF
:1049F000F1EE10FA0FDDD4ED130AF4EEC00AF1EE79
:104A000010FA06DCB1EE400AF4EEC00AF1EE10FA3C
:104A100001D284ED130A94ED100AD4ED130A30EE9E
:104A2000201A84ED101AD4ED040AF5EEC00AF1EE56
:104A300010FA12D094ED150AB5EEC00AF1EE10FA94
:104A40000BD038EE400AD4ED031A21EE800AC0EEF6
:104A5000201A31EE610A84ED100A84ED158AD4ED36
:104A6000060A94ED070AF4EEC00AF1EE10FA33DDFF
:104A700094ED101AB4EEE01AF1EE10FA20DBC4ED5A
:104A8000100A012027E0D4ED118AD4ED0B0A94ED31
:104A90000C1AB0EEE80A30EEC00AC0EE010AB7EE1A
:104AA000000A01F015FAF0EE400AB0EE490A01F0F2
:104AB000EBF9D4ED020A20EE200A60EE280A8BE71B
:104AC000B4EEC01AF1EE10FA04D884ED100A4FF0DB
:104AD000FF3000E00020A06594ED100ABDEC048BCF
:104AE00010BD0000000000009FED080A002180EDCD
:104AF000130A80ED140A80ED110A80ED120A816517
:104B000080ED150A80ED100A7047000000000000DB
:104B100010B5806B01684A6822F003024A60416D5B
:104B200041F010014165012180F85110FDF7DCFAD8
:104B300010BD10B5806BFDF7AAFC10BD38B5054659
:104B4000846BFCF74BFD024628680068C00523D43F
:104B50002068416821F0200141602068416821F00F
:104B6000020141606421204600F01AF818B1606D1E
:104B700040F020006065A068002118B92068C26874
:104B800080680090E186012084F85100606D18B1C2
:104B90002046FDF7A9FA38BD2046FDF777FC38BD61
:104BA00038B504461248134B0068B0FBF3F04FF4DD
:104BB0007A73584300906068B0F5827F0DD10B4640
:104BC000009200228021204600F016F870B1606D3E
:104BD00040F020006065032038BD009830B1401ED1
:104BE000009020688068C0430006F6D5002038BDDC
:104BF0008000002000366E012DE9F8431E469146E4
:104C000088460446089DFCF7E9FC401B351AFCF772
:104C1000E5FC074625480068C0F3CB30684338E020
:104C2000701C37D0FCF7DAFCC01BA84203D215B1C8
:104C3000009860B32CE02068416821F0E0014160F9
:104C40006068B0F5827F0BD1A068B0F5004F02D04C
:104C5000B0F5806F04D12068016821F04001016047
:104C6000A06AB0F5005F09D12068016821F4005105
:104C700001602068016841F400510160012084F85E
:104C80005100002084F850000320BDE8F88300257F
:104C9000401E00902068816838EA010004D000219D
:104CA0004945BDD10020F0E70121F9E7800000204F
:104CB000012291020148FCF78CBC00000014024064
:104CC0002DE9F04110F8015B044617E0207800F070
:104CD00049F86078A41C00F0800730F0800604D00A
:104CE0003146204600F050F834443FB114F8010B2F
:104CF000FF2801D14FF4FA70FCF74EFB6D1EEDB2A8
:104D0000E4D2BDE8F081000070B5134C002204210C
:104D10002046FCF75EFC114D002240212846FCF79E
:104D200058FC1420FCF738FB012240212846FCF7F0
:104D300050FC0B48FFF7C4FF09483B30FFF7C0FFAA
:104D400007484830FFF7BCFF2046BDE8704001220D
:104D50000421FCF73EBC00000008024000040240B1
:104D6000BC99000801B5002210210548FCF731FC70
:104D70004FF0FF33012269460248FDF767FA08BD8C
:104D800000000240C002002070B50D46044601221A
:104D900010210748FCF71DFCAAB221460548FDF783
:104DA00009FB044890F851100329FBD070BD0000A6
:104DB00000000240C0020020254D00240121686B44
:104DC00002F086F94FF40056DFF88880DFF888A0FB
:104DD00015E0012231464046FCF7FBFBC7B1002736
:104DE0000121286F02F074F9A0B1DCB1022C17D3B5
:104DF0000122002411465046FCF7EBFB12E0002292
:104E0000314647464046FCF7E4FBB8464FF4FA7992
:104E10000127E5E70124002221465046FCF7D9FB93
:104E2000641CE4B20121686B02F052F938B90BA09E
:104E300000F08CFE0BA000F0F3FF002028600C486F
:104E4000FCF7C7FD484601F0F7FF002FD7D0C0E7B9
:104E50000000002000180240001002407265626FDE
:104E60006F7400007265626F6F74210D0A0000009C
:104E7000B402002010B54FF0E020006903F0A0FF5D
:104E8000012803D0BDE8104003F0BCBA10BD0000FB
:104E900030B593B030216846FBF73EFA14210CA8D8
:104EA000FBF73AFA1F480025016841F08051016084
:104EB000006800F0805011901B48016841F4804167
:104EC00001600068022400F48040119009200090E5
:104ED0004FF4803001900120CDE905048005079052
:104EE00004200890A820CDE9090407200B9068460B
:104EF000FCF744FF08B172B6FEE70CA90F2081E869
:104F000031004FF4A0500F904FF4805010900521C5
:104F10000CA8FCF729FE002801D072B6FEE713B0FA
:104F200030BD000040380240007000400248016877
:104F300041F470010160704788ED00E00148FDF721
:104F40001DBE0000E80900200148FDF717BE000063
:104F5000780300200148FDF711BE00005004002036
:104F6000F0B50268254C264D264E274F274B4FF0B3
:104F7000804CA04209D0604507D0A84205D0B0427D
:104F800003D0B84201D0984204D122F0700E4A6892
:104F900042EA0E02A0421BD0604519D0A84217D0A9
:104FA000B04215D0B84213D0984211D0184DA84243
:104FB0000ED0184DA8420BD0174DA84208D0174D5F
:104FC000A84205D0164DA84202D0164DA84203D1E2
:104FD00022F44075CA682A434D6922F080022A43B0
:104FE00002608A68C2620A688262A04201D0984266
:104FF00001D10969016301214161F0BD0000014057
:105000000004004000080040000C00400004014083
:1050100000400140004401400048014000180040A9
:10502000001C00400020004010B501F01F030121CA
:10503000046A99408C430462016A9A4011430162F8
:1050400010BD10B5846842EA032224F47F440A4369
:105050002243826010BD826822F070020A4342F04F
:105060000701816070470000F0B5026A22F001027A
:105070000262036A42688469124E24F073050C6868
:105080002C4323F002058B682B430D4DA84201D021
:10509000B04205D123F00807CB683B4323F004035B
:1050A000A84201D0B04205D14D6922F440721543A7
:1050B0008A692A4342608461496841630362F0BDA2
:1050C0000000014000040140F0B5026A22F0100225
:1050D0000262026A436884690D6824F4E64444EA83
:1050E00005248D6822F0200242EA05120F4D104E71
:1050F000A84201D0B04206D1CF6822F0800242EA35
:10510000071222F04002A84201D0B04207D14D69F7
:1051100023F4406343EA85038D6943EA85034360D2
:105120008461496881630262F0BD000000000140B3
:1051300000040140F0B5026A22F480720262026A41
:105140004368C46922F4007224F073050C68124E9F
:105150002C438D6842EA05220E4DA84201D0B04290
:1051600006D1CF6822F4006242EA072222F480626C
:10517000A84201D0B04207D14D6923F4405343EA1D
:1051800005138D6943EA05134360C4614968C1632F
:105190000262F0BD000001400004014030B5026A27
:1051A00022F480520262046A4268C3690D6823F4E3
:1051B000E64343EA05238D6824F4005444EA0534A9
:1051C000084DA84202D0084DA84204D14D6922F4EE
:1051D000804242EA85124260C36149680164046208
:1051E00030BD0000000001400004014010B5036A1A
:1051F000046A24F001040462846924F0F00444EA9F
:10520000021423F00A020A438461026210BD000006
:1052100070B5046A24F0010404628469056A154EBD
:10522000B04214D0B0F1804F11D0134EB0420ED026
:10523000124EB0420BD0124EB04208D0114EB042C6
:1052400005D0114EB04202D0104EB04203D124F02E
:105250000304144301E044F001041A0724F0F004AD
:1052600044EA126225F00A0301F00A01194382613F
:10527000016270BD000001400004004000080040D1
:10528000000C0040000401400040014000180040B4
:1052900010B5036A23F0100303628369046A23F4E0
:1052A000704343EA023224F0A00343EA0111826111
:1052B000016210BD30B5046A24F0100404628469F0
:1052C000056A24F4407444EA022222F470444FF642
:1052D000FF7202EA03322243A02425F0A00304EA6D
:1052E000011119438261016230BD0000A2B080212A
:1052F0006846FBF711F800258E4E8F4F8F4C219595
:105300004FF00108CDF8805096F8540001286ED176
:1053100086F8545021AA69468648FBF747FC69463F
:1053200087A000F07DFD9DF80000672806D19DF85C
:1053300001006F283FD1A06B01F044FF9DF80000F1
:10534000732806D19DF8010074287DD1A06C01F06E
:1053500039FF9DF80000742811D19DF801006C28D8
:1053600006D1606C01F02EFF9DF80000742806D174
:105370009DF80100722867D1E06C01F023FF9DF8D1
:105380000000622806D19DF8010063285CD1A06D61
:1053900001F018FF9DF80000642806D19DF8010077
:1053A000692851D1206F01F00DFF9DF800003028D1
:1053B00002D0312828D047E09DF80100312810D0D4
:1053C000322810D0332810D0342811D0352811D0ED
:1053D000362811D0372811D0382811D0392811D0CB
:1053E00032E0606B2EE0A06B2CE0E06B2AE02FE057
:1053F000206C27E0606C25E0A06C23E0E06C21E0ED
:10540000206D1FE0606D1DE09DF8010030280CD07C
:1054100031280CD032280CD033280CD034280CD0B2
:1054200035280CD036280CD00EE0A06D0AE0E06DD7
:1054300008E0206E06E0606E04E0A06E02E0E06E20
:1054400000E0206F01F0BEFE68462199FAF764FF84
:1054500097F85400012868D187F8545021AA69466A
:105460003548FBF7A3FB9DF80000302817D19DF8C5
:105470000100312809D1206D01F0A4FE32A000F016
:10548000CFFC9DF80000302809D19DF8010032289A
:105490000DD1606E01F096FE2DA000F0C1FC9DF8CC
:1054A00000006F2803D19DF801006B280BD09DF8F8
:1054B00000009DF80110884233D120956C2805D05A
:1054C000722808D00BE0012020602AE06C2906D168
:1054D0004FF0FF3002E0722901D1012080469DF893
:1054E0000200302804D3303800EB800040002090C8
:1054F0009DF80300302801D2209803E0209930392C
:105500000844209000FB08F020900123002220A9ED
:10551000A06A01F02BFD0123002220A9E06A01F01E
:1055200025FD68462199FAF7F7FE012001F084FC79
:10553000EAE600009806002058070020000000203E
:105540004543484F3A257300676574310D0A0000E2
:10555000676574320D0A000010B5806B0021C185AB
:10556000C184FDF7C7FD10BD70B5846B206840692C
:1055700094F83D10C0F3C0100025212904D118B1C2
:10558000E584204600F08AF82068406994F83E10CF
:10559000C0F38010222904D118B1E585204600F01F
:1055A00056F8206C40F0100020642046FDF7A2FD64
:1055B00070BD10B50146806B09680968C9052FD414
:1055C0000021C18501680C3151E8002F22F480725E
:1055D00041E80023002BF5D10168143151E8002F78
:1055E00022F0010241E80023002BF5D101681431BB
:1055F00051E8002F22F0400241E80023002BF5D1B2
:10560000202180F83E10016B012909D101680C317D
:1056100051E8002F22F0100241E80023002BF5D1C1
:10562000016B012902D0FDF7CAFF10BD818DFDF786
:1056300028FD10BD10B5806B016B012902D0FDF76C
:10564000BFFF10BD818D4908FDF71BFD10BD01682E
:105650000C3151E8002F22F4907241E80023002B16
:10566000F5D10168143151E8002F22F0010241E820
:105670000023002BF5D1016B012909D101680C3100
:1056800051E8002F22F0100241E80023002BF5D151
:10569000202180F83E1000210163704701680C3121
:1056A00051E8002F22F0C00241E80023002BF5D181
:1056B000202180F83D10704708B590F83E1022294F
:1056C00001D0022008BD82684FF480539A4201D174
:1056D000016921B1816A9A421BD04AB10AE002688D
:1056E000816A5268C2F308020A80816A891C08E054
:1056F000026972B10268526802F07F020A70816A20
:10570000491C8162C18D491E0904090CC18503D061
:1057100019E002685268F1E70168CA6822F02002C5
:10572000CA600168CA6822F48072CA6001684A6966
:1057300022F001024A61202180F83E10016B01290C
:1057400003D0FDF73CFF002008BD00210163016884
:105750000C3151E8002F22F0100241E80023002B09
:10576000F5D101680A68D20602D50A684968009135
:10577000818DFDF786FCE6E770B504460068016997
:10578000E26821F44051114301612169A068E26996
:1057900008436169114308432168CA6849F20C63F0
:1057A0009A430243CA6020684169A26921F44071AA
:1057B0001143416131492068884202D03049884212
:1057C00002D1FCF79BFA01E0FCF788FAE2690023BA
:1057D000192164253226B2F5004F626828D0A0FB5B
:1057E0000101930F9200FAF74DFD0146B0FBF5F071
:1057F0006FF01802504301EB800006EB0010B0FB85
:10580000F5F000F0F002B1FBF5F002EB0012B1FB95
:10581000F5F06FF01803584301EB800006EB001021
:10582000B0FBF5F000F00F0021681044886070BDF7
:10583000A0FB010192185B41FAF724FD0146B0FB81
:10584000F5F00201B1FBF5F06FF01803584301EBDE
:10585000800006EBC000B0FBF5F000F0F80002EBB2
:105860004002B1FBF5F0584301EB800006EBC000AD
:10587000B0FBF5F000F00700D6E700000010014093
:105880000014014038B58162828500251346044624
:105890000564222084F83E00A26B1C48D063A26BF2
:1058A0001B481064A26B1B48D064A06B0A460565B8
:1058B0002168A06B091DFBF737FD2068016840686F
:1058C000009084F83C50206948B120680C3050E8C2
:1058D000001F41F4807140E80012002AF5D12068D1
:1058E000143050E8001F41F0010140E80012002A86
:1058F000F5D12068143050E8001F41F0400140E825
:105900000012002AF5D1002038BD0000B355000870
:1059100035560008695500082DE9F04198461746AC
:105920000E460446069D27E0681C25D02DB1FBF7E6
:1059300055FEA0EB0800A8421ED920680C3050E8A4
:10594000001F21F4D07140E80012002AF5D1206830
:10595000143050E8001F21F0010140E80012002A35
:10596000F5D1202084F83D0084F83E00002084F822
:105970003C000320BDE8F0812068006836EA0000A2
:1059800004D00020B842CFD00020F3E70120F9E78F
:105990002DE9F04158492622A1F51370FAF7A3FC2E
:1059A000554DE88CA5F51374E08404F50070416F43
:1059B000A162B0F87800A085E88DE085286B2063AF
:1059C00004F520710922A1F51370FAF78CFC95F803
:1059D0003D0084F83D0095F83E0084F83E00286CB8
:1059E00020640025A4F5007025654FF08008E5646B
:1059F000C4E9110800F59E6184F85450352200F581
:105A00001670FAF770FC04F53C7696F8350084F8C9
:105A10008D0004F54A711C22A1F52670FAF763FC8B
:105A2000706DC4F8AC0004F5407104F18006886C18
:105A3000C96CC6E90C01A4F5C070C4E92E05204666
:105A4000FBF7A8F804F5E2712622A1F58270FAF7B7
:105A50004AFC04F5E277F88CC034E08404F1C0001D
:105A6000C16EB166B0F87000A6F86C00F88DE085E4
:105A7000386B206304F59C710922A1F58270FAF756
:105A800032FC97F83D0084F83D0097F83E0084F81A
:105A90003E00386C2064A4F5E0702565E564C4E937
:105AA000110884F8545000F56471352200F5067031
:105AB0003C34FAF718FC04F5CA7696F8350084F8F9
:105AC000510004F5E6711C22A1F5BC70FAF70BFC3D
:105AD000706D2067201D00F5C072916ED26EC0E916
